:020000040800F2
:1000000028050020050100087D0C0008490C0008A7
:10001000790C00088D090008891100080000000013
:10002000000000000000000000000000410E000879
:10003000310B000800000000E50D0008550F000816
:100040001F0100081F0100081F0100081F01000810
:100050001F0100081F0100081F0100081F01000800
:100060001F0100081F0100081F0100081F010008F0
:100070001F0100081F0100081F0100081F010008E0
:100080001F0100081F0100081F0100081F010008D0
:100090001F0100081F0100081F0100081F010008C0
:1000A0001F0100081F0100081F0100081F010008B0
:1000B0001F0100081F0100081F0100081F010008A0
:1000C0001F0100081F0100081F0100081F01000890
:1000D0001F010008B90F0008411000081F010008A7
:1000E0001F0100081F0100081F010008DFF810D0E1
:1000F00000F0D6FA00480047F1110008AFF3008085
:10010000280500200648804706480047FEE7FEE72E
:10011000FEE7FEE7FEE7FEE7FEE7FEE7FEE7FEE7B7
:10012000590F0008ED00000880EA010210B502F046
:100130000043400022D04A001FD0010E01EB1261A3
:10014000C0F35600C2F3560240F4000042F400022D
:10015000A0FB022000047F39140400D0401C50EAA8
:10016000124001D44000491EC2B20C0604EBD0106C
:10017000401C4008802A02D003E0002010BD20F07F
:100180000100002900DA0020184310BD30B480EAD5
:10019000010202F0004530F0004221F0004013D08F
:1001A00090B1C30DD40DC2F31601C0F31600E41ACA
:1001B00041F4000140F400027D34914201D3641CFB
:1001C00000E04900002C02DA30BC002070474FF4F8
:1001D00000000023914201D3891A034340084FEAEB
:1001E0004101F7D151B1914202D14FF0004105E0F8
:1001F00002D24FF0010101E06FF0010103EBC450A6
:10020000284430BC00F0B7B92DE9FE4F804681EAA2
:100210000300C00F0C46009021F0004123F0004580
:10022000B8EB0200A94105D24046214690461C4643
:100230000B46024623F00040104347D0270DC7F37A
:100240000A00C3F30A510290401A019040286BDA69
:10025000C3F3130040F4801B0098924620B10023A2
:10026000D2EB030A63EB0B0B01985946C0F1400235
:10027000504600F05FF906460D4650465946019A31
:1002800000F067F910EB08006141002487EA115281
:1002900084EAE7731A4340D0009A62B3019A012AB4
:1002A0004FEA075215DC001B61EB02014FF00042E0
:1002B00002EA0752CDE90042001C41F580113246A6
:1002C0002B4600F09EF903B0BDE8F08F4046214672
:1002D000F9E7001B61EB0201001C41F580130018D7
:1002E0005B412018A2F5001747EB030140EAD570E7
:1002F000B6196D4111E06D084FEA360645EAC07542
:100300004FEA0752001B61EB0201001C41F580110E
:1003100049084FEA30000019514132462B4603B0DC
:10032000BDE8F04F00F05EB90098012240000023C4
:10033000D0EB020263EBE073009821464FEAE074D1
:10034000B8EB000061EB0401E9E783F000435BE7F1
:1003500081F0004158E72DE9FE4F81EA030404F0E3
:10036000004421F0004100944FF0000B23F00043C3
:1003700050EA01045ED052EA03045BD0C3F30A548E
:10038000C1F30A552C44A4F2F3340194A0FB0254A7
:10039000C1F3130141F48011C3F3130343F4801339
:1003A00001FB024400FB034E840A970A44EA81548D
:1003B00047EA8357A4FB076802958D0A05FB07856A
:1003C0004FEA932C04FB0C542705029D4FEA065874
:1003D00047EA1637B5EB08056EEB070C870E920E51
:1003E00047EA811742EA8312A7FB0201B6EB0B0131
:1003F00064EB00042B0D43EA0C335E1844EB1C50F5
:10040000DA465146E7FB0201C5F313044FEA0B330A
:1004100043EA14534FEA0432019C43EA0603A4F171
:100420000C040294009CCDE900B400F0EAF803B09B
:10043000BDE8F08F00200146F9E79623002211461F
:1004400000F0A2B800F0004220F00040C10DC0F35F
:10045000160040F400007F2901DA00207047962939
:1004600003DCC1F19601C84001E096398840002ABA
:10047000F4D04042704700F0004230F000400AD013
:10048000C10D01F56071C0F3160042EA0151C208C6
:1004900040071143704700200146704730B5041EE5
:1004A00071F1000404DB4FF00044404264EB0101B1
:1004B000141E73F1000405DB1C464FF0004352424A
:1004C00063EB04038B4208BF824230BD30B5041E8B
:1004D00071F1000404DB4FF00044404264EB010181
:1004E000141E73F1000405DB1C464FF0004352421A
:1004F00063EB0403994208BF904230BD01F0004312
:1005000030B421F0004150EA010206D00A0DA2F5F4
:100510006072C1F31301002A02DC30BC0020704776
:10052000440F44EAC104C100E01830BC00EBC250E3
:1005300000F021B8202A04DB203A00FA02F1002062
:1005400070479140C2F1200320FA03F31943904011
:100550007047202A06DBCB17203A41FA02F043EA23
:10056000E07306E041FA02F3D040C2F1200291406C
:100570000843194670470029A8BF7047401C49002E
:1005800008BF20F00100704710B4B0FA80FC00FAF8
:100590000CF050EA010404BF10BC704749B1CCF123
:1005A000200421FA04F411FA0CF118BF01212143AF
:1005B0000843A3EB0C01CB1D4FEA00614FEA10206A
:1005C00042BF002010BC704700EBC350104400290C
:1005D000A4BF10BC7047401C490008BF20F00100B8
:1005E00010BC704710B5141E73F1000408DA401CEB
:1005F00041F1000192185B411A4301D120F0010042
:1006000010BD2DE9F04D92469B4611B1B1FA81F231
:1006100002E0B0FA80F220329046FFF78BFF0446EA
:100620000F4640EA0A0041EA0B0153465A46084386
:1006300013D0114653EA010019D0C8F140025046C8
:1006400000F040F805460E46504659464246FFF730
:1006500071FF084305D0012004E020463946BDE87B
:10066000F08D0020054346EAE0762C4337430A9894
:100670006305E40AA0EB08000022FD0A44EA47549F
:100680000A3002D500200146E9E701051019694149
:10069000DDE9084500196941BDE8F04DA2E7000019
:1006A000064C074D06E0E06840F0010394E80700BF
:1006B00098471034AC42F6D3FFF71CFD0C1200082B
:1006C0002C120008202A04DB203A21FA02F0002133
:1006D000704721FA02F3D040C2F120029140084352
:1006E0001946704721B1826842F00102826003E03E
:1006F000826822F001028260704721B1826842F470
:100700008072826003E0826822F4807282607047A7
:10071000014600208A6802F004020AB1012000E0CC
:1007200000207047014600208A6802F008020AB1E2
:10073000012000E00020704730B502460020002371
:1007400050680F4C20400D790C6844EA0524204382
:10075000506090680B4C2040D1E902542C434D79F5
:1007600044EA450420439060D06A20F470000C7C79
:10077000641EE4B2234340EA0350D06230BD00005F
:10078000FFFEF0FFFDF7F1FFF0B504460D46002037
:100790000021092D11DDE068A5F10A0606EB4607E8
:1007A000072606FA07F18843A5F10A0606EB460676
:1007B00003FA06F10843E0600CE0206905EB450709
:1007C000072606FA07F1884305EB450603FA06F10A
:1007D00008432061072A0FDA606B561E06EB860776
:1007E0001F2606FA07F18843561E06EB860605FA11
:1007F00006F10843606322E00D2A0FDA206BD61F52
:1008000006EB86071F2606FA07F18843D61F06EB7C
:10081000860605FA06F10843206310E0E06AA2F1BB
:100820000D0606EB86071F2606FA07F18843A2F19C
:100830000D0606EB860605FA06F10843E062F0BDF8
:10084000816841F008018160704721B1826842F4FB
:10085000A002826003E0826822F4A00282607047F6
:10086000816841F0040181607047000008B50121F2
:10087000042000F0D5FA0420ADF8000000208DF827
:1008800003006946014800F054F908BD0008014022
:1008900010B5FFF7EBFF00F001F810BD00B591B007
:1008A0000121084600F0ACFA0121480200F0B8FA34
:1008B000334800F079F83348069033480790002019
:1008C00008900120099000200A900B904FF480704E
:1008D0000C9080000D9020200E9000020F900020C0
:1008E000109006A9264800F005F90121244800F0DF
:1008F0004FF8002001908DF8080001208DF80900C4
:100900004FF4602003900020049001208DF8140023
:1009100001A91C484C38FFF70FFF4FF4404000F08E
:1009200063FA05230122022116484C38FFF72CFFF9
:10093000012114484C38FFF7E0FE012111484C38E2
:10094000FFF7D0FE0F484C38FFF77AFF00BF0D4885
:100950004C38FFF7E7FE0028F9D10A484C38FFF77A
:100960007FFF00BF07484C38FFF7D2FE0028F9D1BF
:10097000012104484C38FFF768FF11B000BD0000AA
:10098000080002404C2401403200002000BFFEE776
:1009900021B1026842F00102026004E002684FF6F1
:1009A000FE731A400260704701684FF6FE721140F4
:1009B00001600021016041608160C1604B49884253
:1009C00008D14A490839496841F00F01474A083AB5
:1009D00051608AE045491431884208D143490839B9
:1009E000496841F0F001414A083A51607DE03F49D1
:1009F0002831884208D13D490839496841F470617D
:100A00003A4A083A516070E038493C31884208D18E
:100A100036490839496841F47041344A083A51600E
:100A200063E032495031884208D130490839496879
:100A300041F470212D4A083A516056E02B49643147
:100A4000884208D129490839496841F47001274A88
:100A5000083A516049E025497831884208D1234954
:100A60000839496841F07061204A083A51603CE019
:100A70001F49884206D1011F096841F00F01021F7A
:100A8000116032E01A491431884208D11849091F0F
:100A9000096841F0F001164A121F116025E014495F
:100AA0002831884208D11249091F096841F4706150
:100AB0000F4A121F116018E00D493C31884208D1DD
:100AC0000B49091F096841F47041094A121F11605E
:100AD0000BE007495031884207D10549091F0968D1
:100AE00041F47021024A121F116070470800024051
:100AF0000804024010B50022026847F6F0739A43DA
:100B00000C6A8B6823430C6923434C6923438C692B
:100B10002343CC6923434C6A23438C6A23431A43FF
:100B20000260CB6843600B6883604B68C36010BD94
:100B300070472DE9F04102460025002600200023E1
:100B40000024002791F803C00CF00F0591F803C0B2
:100B50000CF0100CBCF1000F03D091F802C04CEA6D
:100B6000050591F800C0BCF1000F31D014680020D9
:100B70002BE04FF0010C0CFA00F3B1F800C00CEAC6
:100B800003069E4220D183004FF00F0C0CFA03F7AE
:100B9000BC4305FA03FC4CEA040491F803C0BCF121
:100BA000280F06D14FF0010C0CFA00FCC2F814C05B
:100BB0000AE091F803C0BCF1480F05D14FF0010CD9
:100BC0000CFA00FCC2F810C0401C0828D1D31460F5
:100BD000B1F800C0BCF1FF0F34DD546800202EE0F6
:100BE00000F1080C4FF0010808FA0CF3B1F800C04E
:100BF0000CEA03069E4221D183004FF00F0C0CFA41
:100C000003F7BC4305FA03FC4CEA040491F803C063
:100C1000BCF1280F05D100F1080C08FA0CF8C2F855
:100C2000148091F803C0BCF1480F07D100F1080C03
:100C30004FF0010808FA0CF8C2F81080401C082890
:100C4000CED35460BDE8F08100BFFEE708B50121B6
:100C5000102000F0E5F810208DF803004002ADF8F8
:100C6000000003208DF8020069460248FFF761FF8B
:100C700008BD00000010014000BFFEE77047000003
:100C800002490143024A1160704700000000FA0562
:100C90000CED00E02DE9F04746480088FFF7CDFB5A
:100CA00081464FF08B41FFF771FA0446FFF7E3FBF3
:100CB00007464FF06632404BFFF74DFB0546FFF706
:100CC0001DFC3E49086008460068FFF7D4FB8046DB
:100CD0003B4A3C4BFFF73FFB06463B4A3B4BFFF78B
:100CE00093FA0446FFF70AFC394908600846006891
:100CF000FFF7C1FB044600221346FFF7CFFB02D8E3
:100D000000203349086032480068FFF7B4FB04460E
:100D10000022304BFFF7DAFB02D82F482C4908603D
:100D20002E492B480068FFF7FFF90446FFF78AFBBE
:100D30004FF47A7190FBF1F030302949087027495F
:100D400023480068FFF7F0F90446FFF77BFB4FF4F8
:100D50007A7190FBF1F201FB1200642190FBF1F03B
:100D600030301F4948702E2088701C491848006890
:100D7000FFF7DAF90446FFF765FB642190FBF1F217
:100D800001FB12000A2190FBF1F030301449C870C9
:100D900012490F480068FFF7C7F90446FFF752FBF6
:100DA0000A2190FBF1F201FB120030300C4908716E
:100DB000BDE8F0873200002066660A40200000206F
:100DC00087A757CA320417C08195438B6CA7304060
:100DD0000C00002000002C40000060410000C842D0
:100DE000480000207047000001460020034A506878
:100DF00020F440400843506070470000001002405B
:100E000029B1064A52690243044B5A6104E0034A7D
:100E100052698243014B5A61704700000010024042
:100E200029B1064A92690243044B9A6104E0034ADD
:100E300092698243014B9A617047000000100240A2
:100E4000704710B500F002F810BD00000CB500208E
:100E5000019000903348006840F4803031490860C8
:100E600000BF3048006800F4003000900198401C3A
:100E70000190009818B90198B0F5A06FF1D12948F8
:100E8000006800F4003010B10120009001E0002063
:100E900000900098012843D12348006840F01000DA
:100EA000214908600846006820F0030008600846F1
:100EB000006840F0020008601A484068194948601C
:100EC0000846406848600846406840F480604860D2
:100ED0000846406820F47C1048600846406840F4AA
:100EE000E81048600846006840F08070086000BF65
:100EF0000C48006800F000700028F9D009484068EC
:100F000020F00300074948600846406840F00200AE
:100F1000486000BF0348406800F00C000828F9D181
:100F20000CBD00000010024000200240042808D13F
:100F30004FF0E021096941F004014FF0E022116116
:100F400007E04FF0E021096921F004014FF0E022B1
:100F5000116170477047000010B51348006840F0F9
:100F600001001149086008464068104908400E49D0
:100F70004860084600680E4908400B49086008466A
:100F8000006820F4802008600846406820F4FE00D5
:100F900048604FF41F008860FFF753FF4FF0006078
:100FA0000449086010BD0000001002400000FFF876
:100FB000FFFFF6FE08ED00E010B540F225511D4898
:100FC00000F0B3F810B31B4800F0D9F8C4B21A48C7
:100FD000008800F40040C8B91748008800F4804039
:100FE00060B10A2C03D000201349088020E0124889
:100FF000008840F400401049088019E00D2C06D10B
:101000000D48008840F480400B49088010E00A48F1
:101010000088C0F30D0009490C5407480088401CA3
:101020000549088008460088C82801DD002008809E
:1010300010BD000000380140280000205C000020A6
:1010400010B540F225512D4800F06FF8002853D01C
:1010500040F22551294800F059F8284800F08FF84F
:1010600027490870084600785A2806D12548007894
:1010700018B90120234908703EE0214800785A2819
:1010800007D120480078012803D102201D490870AB
:1010900032E01B480078152807D11A48007802284A
:1010A00003D103201749087026E01548007803286B
:1010B00007D114480078032803D10420114908708F
:1010C0001AE010480078042807D10D4800780E492E
:1010D000086005200B4908700EE00A4800780528D2
:1010E0000AD1074800780849096840EA0120064902
:1010F000086000200349087010BD00000044004053
:1011000030000020310000202C00002010B500220B
:10111000002340F66A14A14200D100BF0A12012444
:101120009440A3B2DC43048010BD70B50246002495
:1011300000230025002040F66A16B14200D100BF0E
:10114000C1F3421501F01F03012606FA03F3012D36
:1011500002D19689334006E0022D02D1168A33402F
:1011600001E0968A33400C12012606FA04F4168830
:10117000344013B10CB1012000E0002070BD0146E5
:101180008888C0F30800704700BFFEE702E008C887
:10119000121F08C1002AFAD170477047002001E0F1
:1011A00001C1121F002AFBD17047000010B56FF07B
:1011B0000400FFF7BBFE0A4800680A49B0FBF1F0E3
:1011C000094908700846007800EB4001C1EBC010E7
:1011D0004FF6FF7101EAC0000449088010BD00000D
:1011E0003400002000127A00240000202600002095
:1011F000FFF7DCFFFFF72AFDFFF74AFB4FF4A06083
:10120000FFF73EFD01E0FFF745FDFCE72C1200086B
:1012100000000020480000008C1100087412000833
:1012200048000020E00400009C11000800000000BD
:1012300000000000000000000000000000000000AE
:10124000000000000000000000000000000000009E
:10125000000000000000000000000000000000008E
:1012600000A24A0400000000000000000102030484
:04127000060708095C
:04000005080000ED02
:00000001FF
