:020000040800F2
:10000000F004002005010008A90200086D020008A4
:10001000A50200084D0100081506000800000000B8
:10002000000000000000000000000000CD020008F9
:100030005101000800000000AB020008E1030008C5
:100040001F0100081F0100081F0100081F01000810
:100050001F0100081F0100081F0100081F01000800
:100060001F0100081F0100081F0100081F010008F0
:100070001F0100081F0100081F0100081F010008E0
:100080001F0100081F0100081F0100081F010008D0
:100090001F0100081F0100081F0100081F010008C0
:1000A0001F0100081F0100081F0100081F010008B0
:1000B0001F0100081F0100081F0100081F010008A0
:1000C0001F0100081F0100081F0100081F01000890
:1000D0001F01000845040008CD0400081F010008A6
:1000E0001F0100081F0100081F010008DFF810D0E1
:1000F00000F01AF8004800477D060008AFF30080C2
:10010000F00400200648804706480047FEE7FEE767
:10011000FEE7FEE7FEE7FEE7FEE7FEE7FEE7FEE7B7
:10012000E5030008ED000008064C074D06E0E06816
:1001300040F0010394E8070098471034AC42F6D32E
:10014000FFF7D8FF98060008B806000800BFFEE7D2
:1001500070472DE9F04102460025002600200023CB
:100160000024002791F803C00CF00F0591F803C09C
:100170000CF0100CBCF1000F03D091F802C04CEA57
:10018000050591F800C0BCF1000F31D014680020C3
:100190002BE04FF0010C0CFA00F3B1F800C00CEAB0
:1001A00003069E4220D183004FF00F0C0CFA03F798
:1001B000BC4305FA03FC4CEA040491F803C0BCF10B
:1001C000280F06D14FF0010C0CFA00FCC2F814C045
:1001D0000AE091F803C0BCF1480F05D14FF0010CC3
:1001E0000CFA00FCC2F810C0401C0828D1D31460DF
:1001F000B1F800C0BCF1FF0F34DD546800202EE0E0
:1002000000F1080C4FF0010808FA0CF3B1F800C037
:100210000CEA03069E4221D183004FF00F0C0CFA2A
:1002200003F7BC4305FA03FC4CEA040491F803C04D
:10023000BCF1280F05D100F1080C08FA0CF8C2F83F
:10024000148091F803C0BCF1480F07D100F1080CED
:100250004FF0010808FA0CF8C2F81080401C08287A
:10026000CED35460BDE8F0810161704700BFFEE766
:1002700008B50121102000F019F810208DF80300B6
:100280004002ADF8000003208DF8020069460448E2
:10029000FFF75FFF4FF400510148FFF7E5FF08BD8E
:1002A0000010014000BFFEE77047704729B1064AC1
:1002B00092690243044B9A6104E0034A92698243C3
:1002C000014B9A617047000000100240704710B562
:1002D00000F002F810BD00000CB500200190009065
:1002E0003348006840F480303149086000BF30482E
:1002F000006800F4003000900198401C01900098C4
:1003000018B90198B0F5A06FF1D12948006800F440
:10031000003010B10120009001E000200090009812
:10032000012843D12348006840F0100021490860AB
:100330000846006820F0030008600846006840F0A6
:10034000020008601A484068194948600846406839
:1003500048600846406840F480604860084640684D
:1003600020F47C1048600846406840F4E81048607B
:100370000846006840F08070086000BF0C480068C4
:1003800000F000700028F9D00948406820F0030010
:10039000074948600846406840F00200486000BFD6
:1003A0000348406800F00C000828F9D10CBD00009B
:1003B0000010024000200240042808D14FF0E02144
:1003C000096941F004014FF0E022116107E04FF0AC
:1003D000E021096921F004014FF0E022116170472A
:1003E0007047000010B51348006840F00100114943
:1003F000086008464068104908400E4948600846B1
:1004000000680E4908400B4908600846006820F45F
:10041000802008600846406820F4FE0048604FF4E1
:100420001F008860FFF753FF4FF000600449086029
:1004300010BD0000001002400000FFF8FFFFF6FEB4
:1004400008ED00E010B540F225511D4800F0B3F86A
:1004500010B31B4800F0D9F8C4B21A48008800F461
:100460000040C8B91748008800F4804060B10A2CE9
:1004700003D000201349088020E01248008840F48F
:1004800000401049088019E00D2C06D10D48008865
:1004900040F480400B49088010E00A480088C0F30F
:1004A0000D0009490C5407480088401C0549088084
:1004B00008460088C82801DD0020088010BD000023
:1004C00000380140040000202400002010B540F254
:1004D00025512D4800F06FF8002853D040F22551E7
:1004E000294800F059F8284800F08FF8274908708B
:1004F000084600785A2806D12548007818B9012006
:10050000234908703EE0214800785A2807D1204846
:100510000078012803D102201D49087032E01B48F1
:100520000078152807D11A480078022803D1032043
:100530001749087026E015480078032807D11448A9
:100540000078032803D10420114908701AE01048EC
:100550000078042807D10D4800780E49086005206E
:100560000B4908700EE00A48007805280AD10748B0
:1005700000780849096840EA01200649086000201F
:100580000349087010BD0000004400400C0000202A
:100590000D0000200800002010B50022002340F6C6
:1005A0006A14A14200D100BF0A1201249440A3B2F0
:1005B000DC43048010BD70B50246002400230025F2
:1005C000002040F66A16B14200D100BFC1F34215C7
:1005D00001F01F03012606FA03F3012D02D19689CB
:1005E000334006E0022D02D1168A334001E0968A9C
:1005F00033400C12012606FA04F41688344013B175
:100600000CB1012000E0002070BD01468888C0F3D5
:100610000800704700BFFEE702E008C8121F08C1CB
:10062000002AFAD170477047002001E001C1121F73
:10063000002AFBD17047000010B56FF00400FFF7EF
:10064000BBFE0A4800680A49B0FBF1F0094908708E
:100650000846007800EB4001C1EBC0104FF6FF7177
:1006600001EAC0000449088010BD0000100000200D
:1006700000127A000000002002000020FFF7DCFFDB
:10068000FFF7F6FD4FF400510248FFF7EDFD00BF04
:10069000FEE7000000100140B8060008000000203E
:1006A0002400000018060008DC06000824000020D2
:1006B000CC04000028060008000000000000000034
:1006C000000000000000000000A24A04000000003A
:0C06D000000000000102030406070809F6
:04000005080000ED02
:00000001FF
