:020000040800F2
:100000000805002005010008BD0300088103000861
:10001000B903000879010008E309000800000000A6
:10002000000000000000000000000000B50400080F
:100030007D01000800000000BF030008C90500089A
:100040001F0100081F0100081F0100081F01000810
:100050001F0100081F0100081F0100081F01000800
:100060001F0100081F0100081F0100081F010008F0
:100070001F0100081F0100081F0100081F010008E0
:100080001F0100081F0100081F0100081F010008D0
:100090001F0100081F0100081F0100081F010008C0
:1000A0001F0100081F0100081F0100081F010008B0
:1000B0001F0100081F0100081F0100081F010008A0
:1000C0001F0100081F0100081F0100081F01000890
:1000D0001F010008B50600083D0700081F010008C1
:1000E0001F0100081F0100081F010008DFF810D0E1
:1000F00000F030F800480047310C0008AFF30080F2
:10010000080500200648804706480047FEE7FEE74E
:10011000FEE7FEE7FEE7FEE7FEE7FEE7FEE7FEE7B7
:10012000CD050008ED00000830B50B460146002063
:100130002022012409E021FA02F59D4205D303FAA9
:1001400002F5491B04FA02F52844151EA2F101022A
:10015000F1DC30BD064C074D06E0E06840F00103DD
:1001600094E8070098471034AC42F6D3FFF7C2FF7B
:100170005C0C00087C0C000800BFFEE77047000024
:1001800008B50021082000F01BF904208DF80300B9
:100190004002ADF800006946014800F059F808BD7A
:1001A000000C014010B5002400F038F84FF4006155
:1001B000194800F0E1F84FF4F07000F001FD4FF441
:1001C0000061154800F0DAF83C2000F0F9FCFFF778
:1001D000D7FF04E0601CC4B2012000F0F1FC4FF432
:1001E00000610D4800F0BFF80028F3D0F02C03DCCC
:1001F0003C2C01DD002400E001240A2000F0E0FC9A
:1002000000F00CF84FF40061034800F0B7F8B42098
:1002100000F0D6FC204610BD000C014008B50021BE
:10022000082000F0CDF810208DF80300C001ADF8D3
:10023000000003208DF802006946044800F008F829
:100240004FF40061014800F099F808BD000C01402E
:100250002DE9F0410246002500260020002300245D
:10026000002791F803C00CF00F0591F803C00CF0C3
:10027000100CBCF1000F03D091F802C04CEA050548
:1002800091F800C0BCF1000F31D0146800202BE0C1
:100290004FF0010C0CFA00F3B1F800C00CEA0306B1
:1002A0009E4220D183004FF00F0C0CFA03F7BC43A1
:1002B00005FA03FC4CEA040491F803C0BCF1280FD2
:1002C00006D14FF0010C0CFA00FCC2F814C00AE091
:1002D00091F803C0BCF1480F05D14FF0010C0CFAA6
:1002E00000FCC2F810C0401C0828D1D31460B1F83B
:1002F00000C0BCF1FF0F34DD546800202EE000F197
:10030000080C4FF0010808FA0CF3B1F800C00CEA31
:1003100003069E4221D183004FF00F0C0CFA03F725
:10032000BC4305FA03FC4CEA040491F803C0BCF199
:10033000280F05D100F1080C08FA0CF8C2F8148057
:1003400091F803C0BCF1480F07D100F1080C4FF041
:10035000010808FA0CF8C2F81080401C0828CED317
:100360005460BDE8F0810246002093680B400BB159
:10037000012000E000207047416170470161704733
:1003800000BFFEE708B50121102000F019F8102089
:100390008DF803004002ADF8000003208DF8020044
:1003A00069460448FFF754FF4FF400510148FFF736
:1003B000E5FF08BD0010014000BFFEE77047704731
:1003C00029B1064A92690243044B9A6104E0034A48
:1003D00092698243014B9A6170470000001002400D
:1003E00030B500210022002400232D4D6D6805F05A
:1003F0000C0121B1042905D0082923D105E0294D9C
:10040000056022E0274D05601FE0254D6D6805F46D
:100410007012234D6D6805F48034022505EB92427D
:100420001CB9214D554305600BE01D4D6D6805F469
:1004300000351DB11C4D5543056002E0194D554373
:10044000056002E0174D056000BF00BF144D6D68E8
:1004500005F0F0010909154D6B5C0568DD4045604C
:100460000F4D6D6805F4E061090A104D6B5C45683D
:10047000DD4085600A4D6D6805F46051C90A0B4D79
:100480006B5C4568DD40C560054D6D6805F4404115
:10049000890B074D6B5CC568B5FBF3F5056130BD95
:1004A0000010024000127A0000093D0024000020E4
:1004B00034000020704710B500F002F810BD0000B5
:1004C0000CB50020019000903348006840F4803063
:1004D0003149086000BF3048006800F400300090E7
:1004E0000198401C0190009818B90198B0F5A06FD0
:1004F000F1D12948006800F4003010B101200090CB
:1005000001E0002000900098012843D123480068B2
:1005100040F01000214908600846006820F0030000
:1005200008600846006840F0020008601A48406809
:10053000194948600846406848600846406840F4E9
:10054000806048600846406820F47C104860084697
:10055000406840F4E81048600846006840F0807049
:10056000086000BF0C48006800F000700028F9D057
:100570000948406820F00300074948600846406881
:1005800040F00200486000BF0348406800F00C00E3
:100590000828F9D10CBD00000010024000200240E4
:1005A000042808D14FF0E021096941F004014FF01F
:1005B000E022116107E04FF0E021096921F0040118
:1005C0004FF0E022116170477047000010B51348EA
:1005D000006840F001001149086008464068104971
:1005E00008400E494860084600680E4908400B491B
:1005F00008600846006820F48020086008464068CB
:1006000020F4FE0048604FF41F008860FFF753FF9E
:100610004FF000600449086010BD00000010024067
:100620000000FFF8FFFFF6FE08ED00E000B585B022
:10063000012144F20400FFF7C3FE18208DF81300D7
:100640004FF40070ADF8100003208DF8120004A9DB
:100650001648FFF7FDFD04208DF813000002ADF8E9
:10066000100004A91148FFF7F3FD4FF41650009055
:100670000020ADF80C000C20ADF80A000020ADF809
:100680000800ADF80600ADF804006946084800F01F
:1006900033F9002240F22551054800F007F9012105
:1006A000034800F0C0F805B000BD0000000801409C
:1006B0000038014010B540F225511D4800F0CCF83B
:1006C00010B31B4800F084F9C4B21A48008800F443
:1006D0000040C8B91748008800F4804060B10A2C77
:1006E00003D000201349088020E01248008840F41D
:1006F00000401049088019E00D2C06D10D480088F3
:1007000040F480400B49088010E00A480088C0F39C
:100710000D0009490C5407480088401C0549088011
:1007200008460088C82801DD0020088010BD0000B0
:1007300000380140040000203C00002010B540F2C9
:1007400025512D4800F088F8002853D040F225515B
:10075000294800F059F8284800F03AF9274908706C
:10076000084600785A2806D12548007818B9012093
:10077000234908703EE0214800785A2807D12048D4
:100780000078012803D102201D49087032E01B487F
:100790000078152807D11A480078022803D10320D1
:1007A0001749087026E015480078032807D1144837
:1007B0000078032803D10420114908701AE010487A
:1007C0000078042807D10D4800780E4908600520FC
:1007D0000B4908700EE00A48007805280AD107483E
:1007E00000780849096840EA0120064908600020AD
:1007F0000349087010BD0000004400400C000020B8
:100800000D0000200800002010B50022002340F653
:100810006A14A14200D100BF0A1201249440A3B27D
:10082000DC43048010BD21B1828942F400528281F0
:1008300004E082894DF6FF731A40828170470246B8
:100840000020B1F5007F00D100BF13880B400BB131
:10085000012000E00020704770B50246002400230C
:100860000025002040F66A16B14200D100BFC1F356
:10087000421501F01F03012606FA03F3012D02D1F0
:100880009689334006E0022D02D1168A334001E0FA
:10089000968A33400C12012606FA04F41688344076
:1008A00013B10CB1012000E0002070BDF0B503468B
:1008B000002400260025002040F66A17B94200D126
:1008C00000BF1846C1F3421401F01F06012707FAC2
:1008D00006F5012C01D10C3004E0022C01D11030BE
:1008E00000E014301AB107682F43076002E0076880
:1008F000AF430760F0BD00002DE9F04786B0054624
:100900000E460024A24600BFA1460027B08900B1D0
:1009100000BF2F462C8A4CF6FF700440F088044339
:100920002C82AC894EF6F3100440B088318908431C
:10093000718908430443AC81AC8A4FF6FF40044000
:10094000B0890443AC8201A8FFF74AFD1F488742E3
:1009500002D1DDF810A001E0DDF80CA0A88900F4B8
:10096000004040B10AEBCA0000EB0A1031684900B0
:10097000B0FBF1F807E00AEBCA0000EB0A1031689F
:100980008900B0FBF1F86420B8FBF0F00401200905
:10099000642101FB1089A88900F4004040B1322095
:1009A00000EBC900B0FBF1F000F00700044308E0E1
:1009B000322000EB09106421B0FBF1F000F00F00D1
:1009C00004432C8106B0BDE8F087000000380140E8
:1009D00001468888C0F308007047C1F3080282808E
:1009E000704700BFFEE700000FB4054B10B503A928
:1009F000044A029800F018F810BC5DF814FB0000DF
:100A00000D0C00083800002002E008C8121F08C1C1
:100A1000002AFAD170477047002001E001C1121F7F
:100A2000002AFBD1704700002DE9FF4F89B09B469B
:100A30000446002506E025280BD05A460B9990471E
:100A4000641C6D1C20780028F5D10DB02846BDE847
:100A5000F08F0027B8460122474900E0074314F809
:100A6000013F203B02FA03F00842F7D120782E28FC
:100A700019D114F8010F47F004072A280ED06FF09F
:100A80002F022078A0F1300109290CD808EB880149
:100A900002EB410100EB0108641CF2E70A98641CB8
:100AA00050F8048B0A9020780028CED0642808D013
:100AB000692806D075281ED05A460B9990476D1CA0
:100AC00058E00A994FF00A0901C90A91002802DA90
:100AD00040422D2102E0390504D52B218DF820104C
:100AE000012103E0F90704D02021F7E78A4608AE88
:100AF0000DE00021FAE70A994FF00A0901C90A91AD
:100B0000F7E74946FFF710FB303106F8011D0028D2
:100B1000F7D1ADEB060000F12009780701D44FF0C2
:100B20000108C84502DDA8EB090000E0002080466E
:100B3000002706E008A85A46C05D0B9990476D1C37
:100B40007F1C5745F6DB04E030205A460B9990474E
:100B50006D1CB8F10001A8F10108F5DC05E016F8FC
:100B6000010B5A460B9990476D1CB9F10001A9F190
:100B70000109F4DC641C65E70928010010B56FF079
:100B80000400FFF70DFD0A4800680A49B0FBF1F0C8
:100B9000094908700846007800EB4001C1EBC0101D
:100BA0004FF6FF7101EAC0000449088010BD000043
:100BB0001000002000127A00000000200200002037
:100BC0000146114A12784A434FF0E0235A6100224D
:100BD0009A611A46126942F001021A6100BF4FF091
:100BE000E022106900F001021AB100F48032002AFC
:100BF000F5D04FF0E022126922F001024FF0E0231D
:100C00001A6100229A6170470000002070B5044606
:100C10000D46E1B20548FFF7E0FE00BF8021034822
:100C2000FFF70DFE0028F9D0204670BD00380140C6
:100C30000124FFF7A3FFFFF7F9FCFFF7A3FBFFF782
:100C4000B1FA0446214602A0FFF7CEFE00BFFEE740
:100C500069203D202564200D0A0000007C0C00085E
:100C6000000000203C000000080A0008B80C000842
:100C70003C000020CC040000180A0008000000001E
:100C800000000000000000000000000000A24A0474
:100C9000000000000000000001020304060708092C
:100CA0000000000001020304010203040607080912
:080CB000020406080000000028
:04000005080000ED02
:00000001FF
